:1000000001308A00C12900000A108A100A118207F3
:1000100028340C3401340634D33B693A6334A029C4
:10002000F430F43A731D0000D33B693A6334A029DD
:10003000F430F43A731D0000273084008313000865
:10004000031930280C30F800F701F70B2528F80BBE
:100050002428F730F700F70B2B282E28800B2228B6
:1000600008002E183528081236280816831608129C
:100070008312AE183D2888123E28881683168812EF
:1000800083122E19452808134628081783160813CB
:100090008312AE194D2888134E28881783168813AB
:1000A000000083120815831608110630F700F70BBD
:1000B00057280000831208118316081183120800C4
:1000C000AF018316081600308312081A0130AF04FE
:1000D0008316881600308312881A0130F700031047
:1000E000F70D7708AF048316081700308312081B3A
:1000F0000130F700F70DF70DFC30F7057708AF0476
:100100008316881700308312881B0130F700F70D23
:10011000F70DF70DF830F7057708AF042F08F80052
:10012000080083160811081088108312081083161F
:100130000810081688160817881783128814831663
:10014000881000008312081583160811000083121E
:1001500060207808AE000811831608110000831291
:100160000815831608110230F700F70BB528B828D8
:100170000000831260207808AD0008118316081172
:10018000081288120813881383122E0EF700F0301D
:10019000F70577082D04F8007808AD00AD1FD228C8
:1001A00083169928AB08031DD7280810D8280814EF
:1001B0008316081000008312881083168810000030
:1001C000831208118316081183122C0EAD000F3014
:1001D000AD052D08AE0031202C080F39AD00AE0062
:1001E00031200800280BF528F8284030A900F9280C
:1001F000A90101302702A90729088038AA00AB010C
:100200002A08AC00912008002608073A0319122991
:100210000B3A03191729063A03191F29023A031941
:1002200025292A290130A700A800F2202F29AB0197
:100230000130AC0091200230A7001C202F29013092
:10024000A7000230A800F2202F29AB011030AC002B
:1002500091202F290130AB002608AC009120080026
:1002600083160812881208138813081108108810C2
:1002700083120810831608108312881083168810C2
:1002800083120811831608110F308312A7001C2057
:100290000130A2002208033C031C56290330AE00A3
:1002A00031200530A7001C20A20A4A290230AE00E6
:1002B00031200530A7001C20A2012208033C031CAA
:1002C0006A2922080420A300AB012308AC00912076
:1002D000A20A5D290C30A60004210130A700A80065
:1002E000F2208A110A12DA290B08A2008B13831656
:1002F00003178C170C140000000083120C087F39C0
:100300000319BB290313A30003170D080313A4004B
:1003100003170F080313A5002308A60004212408CF
:1003200003178D000313250803178F0083168C17FE
:100330000C140000000083120C0D0E0D7F39031900
:10034000BB290313A30003170D080313A40003170D
:100350000F080313A5002308A6000421240803178F
:100360008D000313250803178F008D0A03198F0AC8
:100370000313772903170313A21B8B178A110A1281
:10038000EB2903081F398300403083169900A230FF
:10039000980090308312980083161F149F141F1525
:1003A0009F1107309C008313FF30860000308800C7
:1003B000831230298C1EF3298C1EDC291A08A10017
:1003C0000130A700A800F220143003178D00003080
:1003D0008F00031374290130A7000230A800F22017
:1003E0002108A60004216430A7001C20DA2963003C
:02400E007A3FF7
:00000001FF
;PIC16F877A
;CRC=5B32  CREATED="18-Sep-24 22:32"
