:1000000000308A001B28000023308400831300087E
:10001000031918280C30F800F701F70B0D28F80B1E
:100020000C28F730F700F70B13281628800B0A2846
:100030008A110A124C2803081F39830040308316A6
:100040009900A2309800903083129800FF30A000F1
:1000500083161F149F141F159F1107309C008313D4
:1000600001308600BF3087008312A000FF30831666
:10007000860083120608A100211C43284F300C1E65
:100080003F289900472846300C1E4428990002302A
:10009000A200FA30A3000428A20B492836286300E6
:02400E007A3FF7
:00000001FF
;PIC16F877A
;CRC=EF0D  CREATED="18-Sep-24 22:36"
